{
  "_format": "hh-sol-artifact-1",
  "contractName": "BookRental",
  "sourceName": "contracts/BookRental.sol",
  "abi": [
    {
      "anonymous": false,
      "inputs": [
        {
          "indexed": true,
          "internalType": "uint256",
          "name": "id",
          "type": "uint256"
        },
        {
          "indexed": true,
          "internalType": "address",
          "name": "owner",
          "type": "address"
        },
        {
          "indexed": false,
          "internalType": "string",
          "name": "title",
          "type": "string"
        },
        {
          "indexed": false,
          "internalType": "uint256",
          "name": "pricePerDay",
          "type": "uint256"
        },
        {
          "indexed": false,
          "internalType": "uint256",
          "name": "lateFeePerDay",
          "type": "uint256"
        },
        {
          "indexed": false,
          "internalType": "uint256",
          "name": "deposit",
          "type": "uint256"
        }
      ],
      "name": "BookListed",
      "type": "event"
    },
    {
      "anonymous": false,
      "inputs": [
        {
          "indexed": true,
          "internalType": "uint256",
          "name": "id",
          "type": "uint256"
        },
        {
          "indexed": true,
          "internalType": "address",
          "name": "renter",
          "type": "address"
        },
        {
          "indexed": false,
          "internalType": "uint256",
          "name": "rentedAt",
          "type": "uint256"
        },
        {
          "indexed": false,
          "internalType": "uint256",
          "name": "daysBooked",
          "type": "uint256"
        },
        {
          "indexed": false,
          "internalType": "uint256",
          "name": "dueAt",
          "type": "uint256"
        }
      ],
      "name": "BookRented",
      "type": "event"
    },
    {
      "anonymous": false,
      "inputs": [
        {
          "indexed": true,
          "internalType": "uint256",
          "name": "id",
          "type": "uint256"
        },
        {
          "indexed": true,
          "internalType": "address",
          "name": "renter",
          "type": "address"
        },
        {
          "indexed": false,
          "internalType": "uint256",
          "name": "daysUsed",
          "type": "uint256"
        },
        {
          "indexed": false,
          "internalType": "uint256",
          "name": "lateDays",
          "type": "uint256"
        },
        {
          "indexed": false,
          "internalType": "uint256",
          "name": "ownerPaid",
          "type": "uint256"
        },
        {
          "indexed": false,
          "internalType": "uint256",
          "name": "renterRefund",
          "type": "uint256"
        }
      ],
      "name": "BookReturned",
      "type": "event"
    },
    {
      "anonymous": false,
      "inputs": [
        {
          "indexed": true,
          "internalType": "address",
          "name": "previousOwner",
          "type": "address"
        },
        {
          "indexed": true,
          "internalType": "address",
          "name": "newOwner",
          "type": "address"
        }
      ],
      "name": "OwnershipTransferred",
      "type": "event"
    },
    {
      "inputs": [],
      "name": "MAX_RENTAL_DAYS",
      "outputs": [
        {
          "internalType": "uint256",
          "name": "",
          "type": "uint256"
        }
      ],
      "stateMutability": "view",
      "type": "function"
    },
    {
      "inputs": [
        {
          "internalType": "uint256",
          "name": "",
          "type": "uint256"
        }
      ],
      "name": "books",
      "outputs": [
        {
          "internalType": "uint256",
          "name": "id",
          "type": "uint256"
        },
        {
          "internalType": "string",
          "name": "title",
          "type": "string"
        },
        {
          "internalType": "string",
          "name": "description",
          "type": "string"
        },
        {
          "internalType": "string",
          "name": "image",
          "type": "string"
        },
        {
          "internalType": "uint256",
          "name": "pricePerDay",
          "type": "uint256"
        },
        {
          "internalType": "uint256",
          "name": "lateFeePerDay",
          "type": "uint256"
        },
        {
          "internalType": "uint256",
          "name": "deposit",
          "type": "uint256"
        },
        {
          "internalType": "address",
          "name": "owner",
          "type": "address"
        },
        {
          "internalType": "address",
          "name": "renter",
          "type": "address"
        },
        {
          "internalType": "uint256",
          "name": "rentedAt",
          "type": "uint256"
        },
        {
          "internalType": "uint256",
          "name": "daysBooked",
          "type": "uint256"
        },
        {
          "internalType": "bool",
          "name": "isRented",
          "type": "bool"
        },
        {
          "internalType": "uint256",
          "name": "rentCostPaid",
          "type": "uint256"
        }
      ],
      "stateMutability": "view",
      "type": "function"
    },
    {
      "inputs": [
        {
          "internalType": "uint256",
          "name": "bookId",
          "type": "uint256"
        }
      ],
      "name": "getBookDetails",
      "outputs": [
        {
          "internalType": "string",
          "name": "",
          "type": "string"
        },
        {
          "internalType": "uint256",
          "name": "",
          "type": "uint256"
        },
        {
          "internalType": "uint256",
          "name": "",
          "type": "uint256"
        },
        {
          "internalType": "address",
          "name": "",
          "type": "address"
        },
        {
          "internalType": "address",
          "name": "",
          "type": "address"
        },
        {
          "internalType": "uint256",
          "name": "",
          "type": "uint256"
        },
        {
          "internalType": "bool",
          "name": "",
          "type": "bool"
        }
      ],
      "stateMutability": "view",
      "type": "function"
    },
    {
      "inputs": [
        {
          "internalType": "uint256",
          "name": "bookId",
          "type": "uint256"
        }
      ],
      "name": "getDueDate",
      "outputs": [
        {
          "internalType": "uint256",
          "name": "",
          "type": "uint256"
        }
      ],
      "stateMutability": "view",
      "type": "function"
    },
    {
      "inputs": [
        {
          "internalType": "address",
          "name": "user",
          "type": "address"
        }
      ],
      "name": "getUserRentals",
      "outputs": [
        {
          "internalType": "uint256[]",
          "name": "",
          "type": "uint256[]"
        }
      ],
      "stateMutability": "view",
      "type": "function"
    },
    {
      "inputs": [
        {
          "internalType": "address",
          "name": "user",
          "type": "address"
        },
        {
          "internalType": "uint256",
          "name": "bookId",
          "type": "uint256"
        }
      ],
      "name": "hasUserRented",
      "outputs": [
        {
          "internalType": "bool",
          "name": "",
          "type": "bool"
        }
      ],
      "stateMutability": "view",
      "type": "function"
    },
    {
      "inputs": [
        {
          "internalType": "uint256",
          "name": "bookId",
          "type": "uint256"
        }
      ],
      "name": "isBookLate",
      "outputs": [
        {
          "internalType": "bool",
          "name": "",
          "type": "bool"
        },
        {
          "internalType": "uint256",
          "name": "",
          "type": "uint256"
        }
      ],
      "stateMutability": "view",
      "type": "function"
    },
    {
      "inputs": [
        {
          "internalType": "string",
          "name": "title",
          "type": "string"
        },
        {
          "internalType": "string",
          "name": "description",
          "type": "string"
        },
        {
          "internalType": "string",
          "name": "image",
          "type": "string"
        },
        {
          "internalType": "uint256",
          "name": "pricePerDay",
          "type": "uint256"
        },
        {
          "internalType": "uint256",
          "name": "lateFeePerDay",
          "type": "uint256"
        },
        {
          "internalType": "uint256",
          "name": "deposit",
          "type": "uint256"
        }
      ],
      "name": "listBook",
      "outputs": [],
      "stateMutability": "nonpayable",
      "type": "function"
    },
    {
      "inputs": [],
      "name": "owner",
      "outputs": [
        {
          "internalType": "address",
          "name": "",
          "type": "address"
        }
      ],
      "stateMutability": "view",
      "type": "function"
    },
    {
      "inputs": [],
      "name": "renounceOwnership",
      "outputs": [],
      "stateMutability": "nonpayable",
      "type": "function"
    },
    {
      "inputs": [
        {
          "internalType": "uint256",
          "name": "bookId",
          "type": "uint256"
        },
        {
          "internalType": "uint256",
          "name": "daysRequested",
          "type": "uint256"
        }
      ],
      "name": "rentBook",
      "outputs": [],
      "stateMutability": "payable",
      "type": "function"
    },
    {
      "inputs": [
        {
          "internalType": "uint256",
          "name": "bookId",
          "type": "uint256"
        }
      ],
      "name": "returnBook",
      "outputs": [],
      "stateMutability": "nonpayable",
      "type": "function"
    },
    {
      "inputs": [],
      "name": "totalBooks",
      "outputs": [
        {
          "internalType": "uint256",
          "name": "",
          "type": "uint256"
        }
      ],
      "stateMutability": "view",
      "type": "function"
    },
    {
      "inputs": [
        {
          "internalType": "address",
          "name": "newOwner",
          "type": "address"
        }
      ],
      "name": "transferOwnership",
      "outputs": [],
      "stateMutability": "nonpayable",
      "type": "function"
    }
  ],
  "bytecode": "0x608060405234801561001057600080fd5b5061001a33610023565b60018055610073565b600080546001600160a01b038381166001600160a01b0319831681178455604051919092169283917f8be0079c531659141344cd1fd0a4f28419497f9722a3daafe3b4186f6b6457e09190a35050565b6119de806100826000396000f3fe6080604052600436106100dd5760003560e01c80638da5cb5b1161007f578063b5b5c31f11610059578063b5b5c31f1461026b578063ca5140c9146102a2578063d43a4276146102c2578063f2fde38b146102d557600080fd5b80638da5cb5b146101fe578063b0bf17e714610226578063b4ca6c6d1461023b57600080fd5b806368744046116100bb57806368744046146101685780636ec4f4bf146101a1578063715018a6146101b657806374ff4818146101cb57600080fd5b80633b6702a1146100e257806344eea588146101185780635d8828d114610146575b600080fd5b3480156100ee57600080fd5b506101026100fd3660046114a9565b6102f5565b60405161010f91906114cb565b60405180910390f35b34801561012457600080fd5b5061013861013336600461150f565b610361565b60405190815260200161010f565b34801561015257600080fd5b50610166610161366004611571565b6103d2565b005b34801561017457600080fd5b5061018861018336600461150f565b610798565b60405161010f9d9c9b9a99989796959493929190611669565b3480156101ad57600080fd5b506101386109a6565b3480156101c257600080fd5b506101666109b6565b3480156101d757600080fd5b506101eb6101e636600461150f565b6109ca565b60405161010f9796959493929190611716565b34801561020a57600080fd5b506000546040516001600160a01b03909116815260200161010f565b34801561023257600080fd5b50610138601e81565b34801561024757600080fd5b5061025b610256366004611768565b610b08565b604051901515815260200161010f565b34801561027757600080fd5b5061028b61028636600461150f565b610b36565b60408051921515835260208301919091520161010f565b3480156102ae57600080fd5b506101666102bd36600461150f565b610ba5565b6101666102d0366004611792565b610d90565b3480156102e157600080fd5b506101666102f03660046114a9565b611066565b6001600160a01b03811660009081526005602090815260409182902080548351818402810184019094528084526060939283018282801561035557602002820191906000526020600020905b815481526020019060010190808311610341575b50505050509050919050565b6000818152600360205260408120600b81015460ff166103ba5760405162461bcd60e51b815260206004820152600f60248201526e189bdbdac81b9bdd081c995b9d1959608a1b60448201526064015b60405180910390fd5b6201518081600a015402816009015401915050919050565b87158015906103e057508515155b80156103eb57508315155b6104255760405162461bcd60e51b815260206004820152600b60248201526a195b5c1d1e48199a595b1960aa1b60448201526064016103b1565b600083116104615760405162461bcd60e51b815260206004820152600960248201526807072696365203d20360bc1b60448201526064016103b1565b600082116104a05760405162461bcd60e51b815260206004820152600c60248201526b06c61746520666565203d20360a41b60448201526064016103b1565b600081116104de5760405162461bcd60e51b815260206004820152600b60248201526a06465706f736974203d20360ac1b60448201526064016103b1565b818110156105475760405162461bcd60e51b815260206004820152603060248201527f6465706f736974206d75737420636f766572206174206c65617374206f6e652060448201526f646179206f66206c617465206665657360801b60648201526084016103b1565b610555600280546001019055565b600061056060025490565b9050604051806101a001604052808281526020018b8b8080601f016020809104026020016040519081016040528093929190818152602001838380828437600092019190915250505090825250604080516020601f8c018190048102820181019092528a815291810191908b908b9081908401838280828437600092019190915250505090825250604080516020601f8a01819004810282018101909252888152918101919089908990819084018382808284376000920182905250938552505050602080830188905260408084018890526060840187905233608085015260a0840183905260c0840183905260e08401839052610100840183905261012090930182905284825260038152919020825181559082015160018201906106869082611854565b506040820151600282019061069b9082611854565b50606082015160038201906106b09082611854565b506080820151600482015560a0820151600582015560c0820151600682015560e08201516007820180546001600160a01b039283166001600160a01b0319918216179091556101008401516008840180549190931691161790556101208201516009820155610140820151600a820155610160820151600b8201805491151560ff1990921691909117905561018090910151600c90910155604051339082907f578ef64ef5947c2d6059637f7cde3b9871af59c072497b95c30d2f8f73ff59af90610784908e908e908a908a908a90611914565b60405180910390a350505050505050505050565b600360205260009081526040902080546001820180549192916107ba906117ca565b80601f01602080910402602001604051908101604052809291908181526020018280546107e6906117ca565b80156108335780601f1061080857610100808354040283529160200191610833565b820191906000526020600020905b81548152906001019060200180831161081657829003601f168201915b505050505090806002018054610848906117ca565b80601f0160208091040260200160405190810160405280929190818152602001828054610874906117ca565b80156108c15780601f10610896576101008083540402835291602001916108c1565b820191906000526020600020905b8154815290600101906020018083116108a457829003601f168201915b5050505050908060030180546108d6906117ca565b80601f0160208091040260200160405190810160405280929190818152602001828054610902906117ca565b801561094f5780601f106109245761010080835404028352916020019161094f565b820191906000526020600020905b81548152906001019060200180831161093257829003601f168201915b50505050600483015460058401546006850154600786015460088701546009880154600a890154600b8a0154600c909a01549899969895975093956001600160a01b039384169593909216939092909160ff16908d565b60006109b160025490565b905090565b6109be6110dc565b6109c86000611136565b565b6000818152600360205260408120805460609291829182918291829182918203610a275760405162461bcd60e51b815260206004820152600e60248201526d189bdbdac81b9bdd08199bdd5b9960921b60448201526064016103b1565b60048101546006820154600783015460088401546009850154600b860154600187018054909695946001600160a01b039081169416929160ff1615908790610a6e906117ca565b80601f0160208091040260200160405190810160405280929190818152602001828054610a9a906117ca565b8015610ae75780601f10610abc57610100808354040283529160200191610ae7565b820191906000526020600020905b815481529060010190602001808311610aca57829003601f168201915b50505050509650975097509750975097509750975050919395979092949650565b6001600160a01b038216600090815260046020908152604080832084845290915290205460ff165b92915050565b6000818152600360205260408120600b81015482919060ff16610b5f5750600093849350915050565b60006201518082600a015402826009015401905080421115610b98576001956201518042929092036201517f0191909104945092505050565b5060009485945092505050565b610bad611186565b6000818152600360205260409020600b81015460ff16610bfc5760405162461bcd60e51b815260206004820152600a6024820152691b9bdd081c995b9d195960b21b60448201526064016103b1565b60088101546001600160a01b03163314610c465760405162461bcd60e51b815260206004820152600b60248201526a37b7363c903932b73a32b960a91b60448201526064016103b1565b60098101544290600090620151809083036201517f01049050600083600a0154821115610c765750600a83015481035b6006840154600090819081908415610cb75787600501548502935087600601548411610ca25783610ca8565b87600601545b92508291508288600601540390505b610cc1338a6111df565b600b8801805460ff191690556008880180546001600160a01b0319169055600060098901819055600a8901819055600c8901558415801590610d035750600082115b15610d20576007880154610d20906001600160a01b03168361136f565b8015610d3057610d30338261136f565b60408051878152602081018790529081018390526060810182905233908a907f173ca280b31b9c3e104c43789bc68d9ae2e333a3905ce7c8d54611467c38e57e9060800160405180910390a35050505050505050610d8d60018055565b50565b610d98611186565b60008111610dd35760405162461bcd60e51b8152602060048201526008602482015267064617973203d20360c41b60448201526064016103b1565b601e811115610e245760405162461bcd60e51b815260206004820152601d60248201527f65786365656473206d6178696d756d2072656e74616c20706572696f6400000060448201526064016103b1565b60008281526003602052604081208054909103610e745760405162461bcd60e51b815260206004820152600e60248201526d189bdbdac81b9bdd08199bdd5b9960921b60448201526064016103b1565b600b81015460ff1615610eba5760405162461bcd60e51b815260206004820152600e60248201526d185b1c9958591e481c995b9d195960921b60448201526064016103b1565b60078101546001600160a01b03163303610f0a5760405162461bcd60e51b81526020600482015260116024820152701bdddb995c8818d85b9b9bdd081c995b9d607a1b60448201526064016103b1565b60048101546006820154908302908101348114610f5a5760405162461bcd60e51b815260206004820152600e60248201526d1ddc9bdb99c8115512081cd95b9d60921b60448201526064016103b1565b6008830180546001600160a01b03191633908117909155600b8401805460ff199081166001908117909255426009870155600a8601879055600c860185905560008381526004602090815260408083208b845282528083208054909416851790935593815260058085528282208054600687528484208c85528752938320849055908552928201835591825291902081018690556007840154611006906001600160a01b03168461136f565b600984015460408051828152602081018890526201518088029092018282015251339188917f81e1defdd545b7b1522966ff55fe235d52e87069220bf2ac768cacfb97adf2cd9181900360600190a35050505061106260018055565b5050565b61106e6110dc565b6001600160a01b0381166110d35760405162461bcd60e51b815260206004820152602660248201527f4f776e61626c653a206e6577206f776e657220697320746865207a65726f206160448201526564647265737360d01b60648201526084016103b1565b610d8d81611136565b6000546001600160a01b031633146109c85760405162461bcd60e51b815260206004820181905260248201527f4f776e61626c653a2063616c6c6572206973206e6f7420746865206f776e657260448201526064016103b1565b600080546001600160a01b038381166001600160a01b0319831681178455604051919092169283917f8be0079c531659141344cd1fd0a4f28419497f9722a3daafe3b4186f6b6457e09190a35050565b6002600154036111d85760405162461bcd60e51b815260206004820152601f60248201527f5265656e7472616e637947756172643a207265656e7472616e742063616c6c0060448201526064016103b1565b6002600155565b6001600160a01b038216600090815260046020908152604080832084845290915290205460ff1615611062576001600160a01b03821660008181526004602090815260408083208584528252808320805460ff191690558383526006825280832085845282528083205493835260059091528120546112609060019061195b565b9050808214611309576001600160a01b03841660009081526005602052604081208054839081106112935761129361197c565b906000526020600020015490508060056000876001600160a01b03166001600160a01b0316815260200190815260200160002084815481106112d7576112d761197c565b60009182526020808320909101929092556001600160a01b038716815260068252604080822093825292909152208290555b6001600160a01b038416600090815260056020526040902080548061133057611330611992565b6000828152602080822083016000199081018390559092019092556001600160a01b038616825260068152604080832086845290915281205550505050565b804710156113bf5760405162461bcd60e51b815260206004820152601d60248201527f416464726573733a20696e73756666696369656e742062616c616e636500000060448201526064016103b1565b6000826001600160a01b03168260405160006040518083038185875af1925050503d806000811461140c576040519150601f19603f3d011682016040523d82523d6000602084013e611411565b606091505b50509050806114885760405162461bcd60e51b815260206004820152603a60248201527f416464726573733a20756e61626c6520746f2073656e642076616c75652c207260448201527f6563697069656e74206d6179206861766520726576657274656400000000000060648201526084016103b1565b505050565b80356001600160a01b03811681146114a457600080fd5b919050565b6000602082840312156114bb57600080fd5b6114c48261148d565b9392505050565b6020808252825182820181905260009190848201906040850190845b81811015611503578351835292840192918401916001016114e7565b50909695505050505050565b60006020828403121561152157600080fd5b5035919050565b60008083601f84011261153a57600080fd5b50813567ffffffffffffffff81111561155257600080fd5b60208301915083602082850101111561156a57600080fd5b9250929050565b600080600080600080600080600060c08a8c03121561158f57600080fd5b893567ffffffffffffffff808211156115a757600080fd5b6115b38d838e01611528565b909b50995060208c01359150808211156115cc57600080fd5b6115d88d838e01611528565b909950975060408c01359150808211156115f157600080fd5b506115fe8c828d01611528565b9a9d999c50979a969997986060880135976080810135975060a0013595509350505050565b6000815180845260005b818110156116495760208185018101518683018201520161162d565b506000602082860101526020601f19601f83011685010191505092915050565b8d81526101a0602082015260006116846101a083018f611623565b8281036040840152611696818f611623565b905082810360608401526116aa818e611623565b608084018d905260a084018c905260c084018b90526001600160a01b038a811660e0860152891661010085015291506116e09050565b85610120830152846101408301526116fd61016083018515159052565b826101808301529e9d5050505050505050505050505050565b60e08152600061172960e083018a611623565b60208301989098525060408101959095526001600160a01b03938416606086015291909216608084015260a0830191909152151560c090910152919050565b6000806040838503121561177b57600080fd5b6117848361148d565b946020939093013593505050565b600080604083850312156117a557600080fd5b50508035926020909101359150565b634e487b7160e01b600052604160045260246000fd5b600181811c908216806117de57607f821691505b6020821081036117fe57634e487b7160e01b600052602260045260246000fd5b50919050565b601f821115611488576000816000526020600020601f850160051c8101602086101561182d5750805b601f850160051c820191505b8181101561184c57828155600101611839565b505050505050565b815167ffffffffffffffff81111561186e5761186e6117b4565b6118828161187c84546117ca565b84611804565b602080601f8311600181146118b7576000841561189f5750858301515b600019600386901b1c1916600185901b17855561184c565b600085815260208120601f198616915b828110156118e6578886015182559484019460019091019084016118c7565b50858210156119045787850151600019600388901b60f8161c191681555b5050505050600190811b01905550565b60808152846080820152848660a0830137600060a08683010152600060a0601f19601f88011683010190508460208301528360408301528260608301529695505050505050565b81810381811115610b3057634e487b7160e01b600052601160045260246000fd5b634e487b7160e01b600052603260045260246000fd5b634e487b7160e01b600052603160045260246000fdfea2646970667358221220648989ddb4cabd4b617e098f89dd9f25d62028252105a1a7c9db2a83f258162f64736f6c63430008180033",
  "linkReferences": {},
  "deployedLinkReferences": {}
}